:020000040800F2
:1000000070070020CD010008A10300089903000833
:100010009D0300087D0200087F0E0008000000001C
:100020000000000000000000000000004105000882
:10003000810200080000000029040008550600089D
:10004000E7010008E7010008E7010008E7010008F0
:10005000E7010008E7010008E7010008E7010008E0
:10006000E7010008E7010008E7010008E7010008D0
:10007000E7010008E7010008E7010008E7010008C0
:10008000E7010008E7010008E7010008E7010008B0
:10009000E7010008E7010008E7010008E7010008A0
:1000A000E7010008E7010008E7010008E701000890
:1000B000E7010008E7010008E7010008E701000880
:1000C000E7010008E7010008E7010008E701000870
:1000D000E7010008E7010008D50B0008810C0008C3
:1000E000E7010008E7010008E7010008E701000850
:1000F000E7010008E701000821080008E7010008FF
:10010000E7010008E7010008E7010008E70100082F
:10011000E7010008E7010008E7010008E70100081F
:10012000E7010008E7010008E7010008E70100080F
:1001300000F002F800F03AF80AA090E8000C8244BF
:100140008344AAF10107DA4501D100F02FF8AFF29C
:10015000090EBAE80F0013F0010F18BFFB1A43F0A5
:10016000010318472C0E00004C0E0000103A24BF6B
:1001700078C878C1FAD8520724BF30C830C144BF0C
:1001800004680C607047000000230024002500264E
:10019000103A28BF78C1FBD8520728BF30C148BFEA
:1001A0000B6070471FB51FBD10B510BD00F033F8D0
:1001B0001146FFF7F7FF00F089FE00F051F803B495
:1001C000FFF7F2FF03BC00F05CFE00000948804727
:1001D00009480047FEE7FEE7FEE7FEE7FEE7FEE729
:1001E000FEE7FEE7FEE7FEE704480549054A064B41
:1001F0007047000059060008310100087001002016
:1002000070070020700300207003002070477047C3
:10021000704770477047754600F02CF8AE460500F1
:100220006946534620F00700854618B020B5FFF711
:10023000DBFFBDE820404FF000064FF000074FF015
:1002400000084FF0000B21F00701AC46ACE8C009F4
:10025000ACE8C009ACE8C009ACE8C0098D467047FD
:1002600010B50446AFF300802046BDE81040FFF70C
:10027000A6BF0000004870470C01002000BFFEE749
:1002800070472DE9F041024600250026002000239A
:100290000024002791F803C00CF00F0591F803C06B
:1002A0000CF0100CBCF1000F03D091F802C04CEA26
:1002B000050591F800C0BCF1000F31D01468002092
:1002C0002BE04FF0010C0CFA00F3B1F800C00CEA7F
:1002D00003069E4220D183004FF00F0C0CFA03F767
:1002E000BC4305FA03FC4CEA040491F803C0BCF1DA
:1002F000280F06D14FF0010C0CFA00FCC2F814C014
:100300000AE091F803C0BCF1480F05D14FF0010C91
:100310000CFA00FCC2F810C0401C0828D1D31460AD
:10032000B1F800C0BCF1FF0F34DD546800202EE0AE
:1003300000F1080C4FF0010808FA0CF3B1F800C006
:100340000CEA03069E4221D183004FF00F0C0CFAF9
:1003500003F7BC4305FA03FC4CEA040491F803C01C
:10036000BCF1280F05D100F1080C08FA0CF8C2F80E
:10037000148091F803C0BCF1480F07D100F1080CBC
:100380004FF0010808FA0CF8C2F81080401C082849
:10039000CED35460BDE8F08100BFFEE700BFFEE7AA
:1003A0007047000070B5002100230F22C47804B309
:1003B000154C246804F4E064C4F5E064210AC1F13A
:1003C0000403CA40447804FA03F1847814402143BA
:1003D00009010E4C0678A155047804F01F0501248C
:1003E000AC4005786D11AD0005F1E025C5F8004180
:1003F00009E0047804F01F050124AC40044D0678A0
:10040000761145F8264070BD0CED00E000E400E0F8
:1004100080E100E002490143024A11607047000098
:100420000000FA050CED00E07047000029B1064A13
:10043000D2690243044BDA6104E0034AD269824381
:10044000014BDA61704700000010024029B1064AF2
:1004500092690243044B9A6104E0034A9269824321
:10046000014B9A61704700000010024030B5002136
:100470000022002400232D4D6D6805F00C0121B1F0
:10048000042905D0082923D105E0294D056022E083
:10049000274D05601FE0254D6D6805F47012234D52
:1004A0006D6805F48034022505EB92421CB9214D9C
:1004B000554305600BE01D4D6D6805F400351DB119
:1004C0001C4D5543056002E0194D5543056002E09F
:1004D000174D056000BF00BF144D6D6805F0F001B9
:1004E0000909154D6B5C0568DD4045600F4D6D6871
:1004F00005F4E061090A104D6B5C4568DD408560DC
:100500000A4D6D6805F46051C90A0B4D6B5C456876
:10051000DD40C560054D6D6805F44041890B074D10
:100520006B5CC568B5FBF3F5056130BD001002409A
:1005300000127A0000093D00200000203000002059
:10054000704710B500F002F810BD00000CB5002097
:10055000019000903348006840F4803031490860D1
:1005600000BF3048006800F4003000900198401C43
:100570000190009818B90198B0F5A06FF1D1294801
:10058000006800F4003010B10120009001E000206C
:1005900000900098012843D12348006840F01000E3
:1005A000214908600846006820F0030008600846FA
:1005B000006840F0020008601A4840681949486025
:1005C0000846406848600846406840F480604860DB
:1005D0000846406820F47C1048600846406840F4B3
:1005E000E81048600846006840F08070086000BF6E
:1005F0000C48006800F000700028F9D009484068F5
:1006000020F00300074948600846406840F00200B7
:10061000486000BF0348406800F00C000828F9D18A
:100620000CBD00000010024000200240042808D148
:100630004FF0E021096941F004014FF0E02211611F
:1006400007E04FF0E021096921F004014FF0E022BA
:10065000116170477047000010B51348006840F002
:1006600001001149086008464068104908400E49D9
:100670004860084600680E4908400B490860084673
:10068000006820F4802008600846406820F4FE00DE
:1006900048604FF41F008860FFF753FF4FF0006081
:1006A0000449086010BD0000001002400000FFF87F
:1006B000FFFFF6FE08ED00E030B589B005460C46B8
:1006C0000121C802FFF7C2FE01210420FFF7BEFE90
:1006D0004FF48070ADF8200018208DF8230003201F
:1006E0008DF8220008A94C48FFF7CBFD4FF40070AD
:1006F000ADF8200018208DF8230003208DF822008B
:1007000008A94548FFF7BDFD4FF48060ADF8200013
:1007100018208DF8230003208DF8220008A93E48F8
:10072000FFF7AFFD4FF40060ADF8200018208DF802
:10073000230003208DF8220008A93748FFF7A1FD08
:10074000ADF81850ADF814400020ADF81A00ADF81F
:10075000160005A9314800F0EBF97020ADF804004F
:100760000120ADF806000020ADF80A000220ADF827
:100770000C0001A9294800F07BF87020ADF80400B6
:100780000120ADF806000020ADF80A000220ADF807
:100790000C0001A9214800F0C1F87020ADF8040058
:1007A0000120ADF806000020ADF80A000220ADF8E7
:1007B0000C0001A9194800F011F97020ADF80400EF
:1007C0000120ADF806000020ADF80A000220ADF8C7
:1007D0000C0001A9114800F05BF901210F4800F05D
:1007E00038F808210D4800F08FF808210B4800F078
:1007F000E7F80821094800F041F90821074800F00E
:1008000085F90121054800F00CF80121034800F0AA
:1008100014F809B030BD000000080140002C014070
:10082000704721B1028842F08002028004E0028811
:100830004FF67F731A400280704721B1028842F060
:100840000102028004E002884FF6FE731A40028023
:10085000704731B1B0F8442042F40042A0F844207F
:1008600005E0B0F84420C2F30E02A0F8442070471F
:1008700070B5002400220023058C4FF6FE7635402B
:100880000584028C8388048B4FF68F752C40B51E2F
:100890002C400D882C43751E2A400D892A434D8813
:1008A0002A43144DA8420BD0134DA84208D0134D33
:1008B000A84205D0124DA84202D0124DA84213D131
:1008C0004FF6F7752A404D892A434FF6FB752A40AB
:1008D0008D882A434FF6FF652B404FF6FF552B407E
:1008E0008D892B43CD892B4383800483CD888586D6
:1008F000028470BD002C01400034014000400140E2
:1009000000440140004801400A460021018B4FF697
:10091000F7731940114301837047000070B500243C
:1009200000220023058C4FF6EF7635400584028CBB
:100930008388048B48F6FF752C404FF6FF452C400A
:100940000D884FF6FF7606EA05252C434FF6DF7536
:100950002A400D8906EA05152A434D8806EA051541
:100960002A43154DA84202D0144DA8421DD14FF67E
:100970007F752A404D894FF6FF7606EA05152A4312
:100980004FF6BF752A408D8806EA05152A434FF6B3
:10099000FF352B404FF2FF752B408D8906EA850508
:1009A0002B43CD8906EA85052B4383800483CD88BC
:1009B0000587028470BD0000002C01400034014016
:1009C0000A460021018B4FF2FF7319404FF6FF7367
:1009D00003EA0223194301837047000070B5002425
:1009E00000220023058C4FF6FF6635400584028CFB
:1009F0008388848B4FF68F752C404FF6FC752C4006
:100A00000D882C434FF6FF552A400D894FF6FF768F
:100A100006EA05252A434D8806EA05252A43154D91
:100A2000A84202D0144DA8421DD14FF2FF752A40B2
:100A30004D894FF6FF7606EA05252A434FF6FF3526
:100A40002A408D8806EA05252A434EF6FF752B407D
:100A50004DF6FF752B408D8906EA05152B43CD8990
:100A600006EA05152B4383808483CD88858702841D
:100A700070BD0000002C0140003401400A460021F6
:100A8000818B4FF6F7731940114381837047000043
:100A900070B5002200230024058C4EF6FF76354009
:100AA0000584038C8488828B48F6FF752A404FF6B4
:100AB000FF452A400D884FF6FF7606EA05252A43B2
:100AC0004DF6FF752B400D8906EA05352B434D8801
:100AD00006EA05352B430B4DA84202D00A4DA84229
:100AE00008D14BF6FF752C408D894FF6FF7606EA4C
:100AF00085152C4384808283CD88A0F840500384E0
:100B000070BD0000002C0140003401400A46002165
:100B1000818B4FF2FF7319404FF6FF7303EA0223F4
:100B200019438183704781877047A0F84010704750
:100B3000002202881D4B98420ED01D4B98420BD0CC
:100B4000B0F1804F08D01B4B984205D01A4B984209
:100B500002D01A4B984204D14FF68F731A404B883B
:100B60001A43174B984207D0164B984204D04FF6C1
:100B7000FF431A40CB881A4302808B8883850B88F9
:100B800003850A4B98420BD0094B984208D00E4B74
:100B9000984205D00D4B984202D00D4B984201D19E
:100BA0000B7A03860123838270470000002C0140EA
:100BB000003401400004004000080040000C0040E8
:100BC000001000400014004000400140004401407B
:100BD0000048014010B540F22551254800F08AF840
:100BE000002844D0224800F041F9C4B2642C0DDC46
:100BF000002C0BDB04EB840081001E48FFF793FF01
:100C000004EB840081001B48FFF78FFF1A4800881F
:100C100000F4004058BB1848008800F4804060B1E0
:100C20000A2C03D000201449088020E012480088D4
:100C300040F400401049088019E00D2C06D10E4800
:100C4000008840F480400C49088010E00A48008881
:100C5000C0F30D0009490C5407480088401C0649A0
:100C6000088008460088C72801DD0020088010BDE4
:100C700000440040002C01401C00002034000020F3
:100C800010B5094800F0F2F8C4B2612C03D04E212F
:100C9000054800F0F0F82021034800F007F8202173
:100CA000014800F00CF810BD0048004001F400724B
:100CB000B2F5007F00D100BFCA430280704710B573
:100CC0000022002340F66A14A14200D100BF0A129C
:100CD00001249440A3B2DC43048010BD21B1828979
:100CE00042F40052828104E082894DF6FF731A407B
:100CF0008281704770B50246002400230025002041
:100D000040F66A16B14200D100BFC1F3421501F0AE
:100D10001F03012606FA03F3012D02D19689334001
:100D200006E0022D02D1168A334001E0968A334054
:100D30000C12012606FA04F41688344013B10CB1E3
:100D4000012000E0002070BDF0B50346002400261D
:100D50000025002040F66A17B94200D100BF1846AE
:100D6000C1F3421401F01F06012707FA06F5012C12
:100D700001D10C3004E0022C01D1103000E014301D
:100D80001AB107682F43076002E00768AF430760A6
:100D9000F0BD00002DE9F04786B005460E46002460
:100DA000A24600BFA1460027B08900B100BF2F4670
:100DB0002C8A4CF6FF700440F08804432C82AC89E6
:100DC0004EF6F3100440B088318908437189084316
:100DD0000443AC81AC8A4FF6FF400440B089044321
:100DE000AC8201A8FFF742FB1F48874202D1DDF821
:100DF00010A001E0DDF80CA0A88900F4004040B18B
:100E00000AEBCA0000EB0A1031684900B0FBF1F8A8
:100E100007E00AEBCA0000EB0A1031688900B0FB5A
:100E2000F1F86420B8FBF0F004012009642101FB13
:100E30001089A88900F4004040B1322000EBC900BD
:100E4000B0FBF1F000F00700044308E0322000EBB3
:100E500009106421B0FBF1F000F00F0004432C8175
:100E600006B0BDE8F08700000038014001468888E0
:100E7000C0F308007047C1F308028280704700BFCA
:100E8000FEE7014600BF704710B56FF00400FFF7A2
:100E9000CDFB0A4800680A49B0FBF1F00949087027
:100EA0000846007800EB4001C1EBC0104FF6FF711F
:100EB00001EAC0000449088010BD000000000020C5
:100EC00000127A00140000201600002000BF00BFAE
:100ED0004FF4A060FFF79EFAFFF7D6FF4FF41650CD
:100EE00000F008F840F2CF214FF4FA60FFF7E4FB7E
:100EF00000BFFEE71CB5044601210420FFF7A6FA57
:100F000001214804FFF792FA0420ADF80400032001
:100F10008DF8060018208DF8070001A91948FFF781
:100F2000B0F90820ADF8040004208DF8070001A9ED
:100F30001448FFF7A6F926208DF8000003208DF84D
:100F400001008DF8020001208DF803006846FFF7CC
:100F500029FA0D48046000200B498880C880088168
:100F600088810C2048810948FFF714FF012240F2D4
:100F700025510648FFF7E8FE01210448FFF7AEFEC1
:100F80001CBD000000080140FC000020004400409F
:100F9000B00F000800000020340000006C010008C1
:100FA000E40F0008340000203C070000880100081E
:100FB00000A24A0400000000000000000102030437
:100FC0000607080900000000000000000000000003
:100FD00000000000010203040102030406070809DF
:040FE00002040608F9
:0400000508000131BD
:00000001FF
